{
  "_format": "hh-sol-artifact-1",
  "contractName": "NFTMarketplace",
  "sourceName": "contracts/NFTMarketplace.sol",
  "abi": [
    {
      "inputs": [],
      "stateMutability": "nonpayable",
      "type": "constructor"
    },
    {
      "inputs": [
        {
          "internalType": "address",
          "name": "sender",
          "type": "address"
        },
        {
          "internalType": "uint256",
          "name": "tokenId",
          "type": "uint256"
        },
        {
          "internalType": "address",
          "name": "owner",
          "type": "address"
        }
      ],
      "name": "ERC721IncorrectOwner",
      "type": "error"
    },
    {
      "inputs": [
        {
          "internalType": "address",
          "name": "operator",
          "type": "address"
        },
        {
          "internalType": "uint256",
          "name": "tokenId",
          "type": "uint256"
        }
      ],
      "name": "ERC721InsufficientApproval",
      "type": "error"
    },
    {
      "inputs": [
        {
          "internalType": "address",
          "name": "approver",
          "type": "address"
        }
      ],
      "name": "ERC721InvalidApprover",
      "type": "error"
    },
    {
      "inputs": [
        {
          "internalType": "address",
          "name": "operator",
          "type": "address"
        }
      ],
      "name": "ERC721InvalidOperator",
      "type": "error"
    },
    {
      "inputs": [
        {
          "internalType": "address",
          "name": "owner",
          "type": "address"
        }
      ],
      "name": "ERC721InvalidOwner",
      "type": "error"
    },
    {
      "inputs": [
        {
          "internalType": "address",
          "name": "receiver",
          "type": "address"
        }
      ],
      "name": "ERC721InvalidReceiver",
      "type": "error"
    },
    {
      "inputs": [
        {
          "internalType": "address",
          "name": "sender",
          "type": "address"
        }
      ],
      "name": "ERC721InvalidSender",
      "type": "error"
    },
    {
      "inputs": [
        {
          "internalType": "uint256",
          "name": "tokenId",
          "type": "uint256"
        }
      ],
      "name": "ERC721NonexistentToken",
      "type": "error"
    },
    {
      "inputs": [
        {
          "internalType": "address",
          "name": "owner",
          "type": "address"
        }
      ],
      "name": "OwnableInvalidOwner",
      "type": "error"
    },
    {
      "inputs": [
        {
          "internalType": "address",
          "name": "account",
          "type": "address"
        }
      ],
      "name": "OwnableUnauthorizedAccount",
      "type": "error"
    },
    {
      "anonymous": false,
      "inputs": [
        {
          "indexed": true,
          "internalType": "address",
          "name": "owner",
          "type": "address"
        },
        {
          "indexed": true,
          "internalType": "address",
          "name": "approved",
          "type": "address"
        },
        {
          "indexed": true,
          "internalType": "uint256",
          "name": "tokenId",
          "type": "uint256"
        }
      ],
      "name": "Approval",
      "type": "event"
    },
    {
      "anonymous": false,
      "inputs": [
        {
          "indexed": true,
          "internalType": "address",
          "name": "owner",
          "type": "address"
        },
        {
          "indexed": true,
          "internalType": "address",
          "name": "operator",
          "type": "address"
        },
        {
          "indexed": false,
          "internalType": "bool",
          "name": "approved",
          "type": "bool"
        }
      ],
      "name": "ApprovalForAll",
      "type": "event"
    },
    {
      "anonymous": false,
      "inputs": [
        {
          "indexed": false,
          "internalType": "uint256",
          "name": "_fromTokenId",
          "type": "uint256"
        },
        {
          "indexed": false,
          "internalType": "uint256",
          "name": "_toTokenId",
          "type": "uint256"
        }
      ],
      "name": "BatchMetadataUpdate",
      "type": "event"
    },
    {
      "anonymous": false,
      "inputs": [
        {
          "indexed": true,
          "internalType": "uint256",
          "name": "tokenId",
          "type": "uint256"
        },
        {
          "indexed": true,
          "internalType": "address",
          "name": "seller",
          "type": "address"
        },
        {
          "indexed": false,
          "internalType": "uint256",
          "name": "price",
          "type": "uint256"
        }
      ],
      "name": "ListingCreationSuccessful",
      "type": "event"
    },
    {
      "anonymous": false,
      "inputs": [
        {
          "indexed": false,
          "internalType": "uint256",
          "name": "_tokenId",
          "type": "uint256"
        }
      ],
      "name": "MetadataUpdate",
      "type": "event"
    },
    {
      "anonymous": false,
      "inputs": [
        {
          "indexed": true,
          "internalType": "address",
          "name": "previousOwner",
          "type": "address"
        },
        {
          "indexed": true,
          "internalType": "address",
          "name": "newOwner",
          "type": "address"
        }
      ],
      "name": "OwnershipTransferred",
      "type": "event"
    },
    {
      "anonymous": false,
      "inputs": [
        {
          "indexed": true,
          "internalType": "uint256",
          "name": "tokenId",
          "type": "uint256"
        },
        {
          "indexed": true,
          "internalType": "address",
          "name": "seller",
          "type": "address"
        },
        {
          "indexed": true,
          "internalType": "address",
          "name": "buyer",
          "type": "address"
        },
        {
          "indexed": false,
          "internalType": "uint256",
          "name": "price",
          "type": "uint256"
        }
      ],
      "name": "PurchaseSuccessful",
      "type": "event"
    },
    {
      "anonymous": false,
      "inputs": [
        {
          "indexed": true,
          "internalType": "address",
          "name": "from",
          "type": "address"
        },
        {
          "indexed": true,
          "internalType": "address",
          "name": "to",
          "type": "address"
        },
        {
          "indexed": true,
          "internalType": "uint256",
          "name": "tokenId",
          "type": "uint256"
        }
      ],
      "name": "Transfer",
      "type": "event"
    },
    {
      "inputs": [
        {
          "internalType": "address",
          "name": "to",
          "type": "address"
        },
        {
          "internalType": "uint256",
          "name": "tokenId",
          "type": "uint256"
        }
      ],
      "name": "approve",
      "outputs": [],
      "stateMutability": "nonpayable",
      "type": "function"
    },
    {
      "inputs": [
        {
          "internalType": "address",
          "name": "minter",
          "type": "address"
        }
      ],
      "name": "approveMinter",
      "outputs": [],
      "stateMutability": "nonpayable",
      "type": "function"
    },
    {
      "inputs": [
        {
          "internalType": "address",
          "name": "",
          "type": "address"
        }
      ],
      "name": "approvedMinters",
      "outputs": [
        {
          "internalType": "bool",
          "name": "",
          "type": "bool"
        }
      ],
      "stateMutability": "view",
      "type": "function"
    },
    {
      "inputs": [
        {
          "internalType": "address",
          "name": "owner",
          "type": "address"
        }
      ],
      "name": "balanceOf",
      "outputs": [
        {
          "internalType": "uint256",
          "name": "",
          "type": "uint256"
        }
      ],
      "stateMutability": "view",
      "type": "function"
    },
    {
      "inputs": [
        {
          "internalType": "uint256",
          "name": "_tokenId",
          "type": "uint256"
        }
      ],
      "name": "buyNFT",
      "outputs": [],
      "stateMutability": "payable",
      "type": "function"
    },
    {
      "inputs": [
        {
          "internalType": "uint256",
          "name": "tokenId",
          "type": "uint256"
        }
      ],
      "name": "getApproved",
      "outputs": [
        {
          "internalType": "address",
          "name": "",
          "type": "address"
        }
      ],
      "stateMutability": "view",
      "type": "function"
    },
    {
      "inputs": [
        {
          "internalType": "address",
          "name": "owner",
          "type": "address"
        },
        {
          "internalType": "address",
          "name": "operator",
          "type": "address"
        }
      ],
      "name": "isApprovedForAll",
      "outputs": [
        {
          "internalType": "bool",
          "name": "",
          "type": "bool"
        }
      ],
      "stateMutability": "view",
      "type": "function"
    },
    {
      "inputs": [
        {
          "internalType": "uint256",
          "name": "_tokenId",
          "type": "uint256"
        },
        {
          "internalType": "uint256",
          "name": "price",
          "type": "uint256"
        }
      ],
      "name": "listNFT",
      "outputs": [],
      "stateMutability": "nonpayable",
      "type": "function"
    },
    {
      "inputs": [
        {
          "internalType": "address",
          "name": "to",
          "type": "address"
        },
        {
          "internalType": "string",
          "name": "tokenURI",
          "type": "string"
        }
      ],
      "name": "mint",
      "outputs": [
        {
          "internalType": "uint256",
          "name": "",
          "type": "uint256"
        }
      ],
      "stateMutability": "nonpayable",
      "type": "function"
    },
    {
      "inputs": [],
      "name": "name",
      "outputs": [
        {
          "internalType": "string",
          "name": "",
          "type": "string"
        }
      ],
      "stateMutability": "view",
      "type": "function"
    },
    {
      "inputs": [
        {
          "internalType": "uint256",
          "name": "",
          "type": "uint256"
        }
      ],
      "name": "nftListings",
      "outputs": [
        {
          "internalType": "address",
          "name": "seller",
          "type": "address"
        },
        {
          "internalType": "uint256",
          "name": "price",
          "type": "uint256"
        }
      ],
      "stateMutability": "view",
      "type": "function"
    },
    {
      "inputs": [],
      "name": "owner",
      "outputs": [
        {
          "internalType": "address",
          "name": "",
          "type": "address"
        }
      ],
      "stateMutability": "view",
      "type": "function"
    },
    {
      "inputs": [
        {
          "internalType": "uint256",
          "name": "tokenId",
          "type": "uint256"
        }
      ],
      "name": "ownerOf",
      "outputs": [
        {
          "internalType": "address",
          "name": "",
          "type": "address"
        }
      ],
      "stateMutability": "view",
      "type": "function"
    },
    {
      "inputs": [],
      "name": "renounceOwnership",
      "outputs": [],
      "stateMutability": "nonpayable",
      "type": "function"
    },
    {
      "inputs": [
        {
          "internalType": "address",
          "name": "from",
          "type": "address"
        },
        {
          "internalType": "address",
          "name": "to",
          "type": "address"
        },
        {
          "internalType": "uint256",
          "name": "tokenId",
          "type": "uint256"
        }
      ],
      "name": "safeTransferFrom",
      "outputs": [],
      "stateMutability": "nonpayable",
      "type": "function"
    },
    {
      "inputs": [
        {
          "internalType": "address",
          "name": "from",
          "type": "address"
        },
        {
          "internalType": "address",
          "name": "to",
          "type": "address"
        },
        {
          "internalType": "uint256",
          "name": "tokenId",
          "type": "uint256"
        },
        {
          "internalType": "bytes",
          "name": "data",
          "type": "bytes"
        }
      ],
      "name": "safeTransferFrom",
      "outputs": [],
      "stateMutability": "nonpayable",
      "type": "function"
    },
    {
      "inputs": [
        {
          "internalType": "address",
          "name": "",
          "type": "address"
        }
      ],
      "name": "sellerBalances",
      "outputs": [
        {
          "internalType": "uint256",
          "name": "",
          "type": "uint256"
        }
      ],
      "stateMutability": "view",
      "type": "function"
    },
    {
      "inputs": [
        {
          "internalType": "address",
          "name": "operator",
          "type": "address"
        },
        {
          "internalType": "bool",
          "name": "approved",
          "type": "bool"
        }
      ],
      "name": "setApprovalForAll",
      "outputs": [],
      "stateMutability": "nonpayable",
      "type": "function"
    },
    {
      "inputs": [
        {
          "internalType": "bytes4",
          "name": "interfaceId",
          "type": "bytes4"
        }
      ],
      "name": "supportsInterface",
      "outputs": [
        {
          "internalType": "bool",
          "name": "",
          "type": "bool"
        }
      ],
      "stateMutability": "view",
      "type": "function"
    },
    {
      "inputs": [],
      "name": "symbol",
      "outputs": [
        {
          "internalType": "string",
          "name": "",
          "type": "string"
        }
      ],
      "stateMutability": "view",
      "type": "function"
    },
    {
      "inputs": [
        {
          "internalType": "uint256",
          "name": "tokenId",
          "type": "uint256"
        }
      ],
      "name": "tokenURI",
      "outputs": [
        {
          "internalType": "string",
          "name": "",
          "type": "string"
        }
      ],
      "stateMutability": "view",
      "type": "function"
    },
    {
      "inputs": [
        {
          "internalType": "address",
          "name": "from",
          "type": "address"
        },
        {
          "internalType": "address",
          "name": "to",
          "type": "address"
        },
        {
          "internalType": "uint256",
          "name": "tokenId",
          "type": "uint256"
        }
      ],
      "name": "transferFrom",
      "outputs": [],
      "stateMutability": "nonpayable",
      "type": "function"
    },
    {
      "inputs": [
        {
          "internalType": "address",
          "name": "newOwner",
          "type": "address"
        }
      ],
      "name": "transferOwnership",
      "outputs": [],
      "stateMutability": "nonpayable",
      "type": "function"
    }
  ],
  "bytecode": "0x608060405234801561001057600080fd5b50336040518060400160405280600881526020017f4544454e204e46540000000000000000000000000000000000000000000000008152506040518060400160405280600481526020017f4544454e00000000000000000000000000000000000000000000000000000000815250816000908161008d919061043d565b50806001908161009d919061043d565b505050600073ffffffffffffffffffffffffffffffffffffffff168173ffffffffffffffffffffffffffffffffffffffff16036101125760006040517f1e4fbdf70000000000000000000000000000000000000000000000000000000081526004016101099190610550565b60405180910390fd5b6101218161012760201b60201c565b5061056b565b6000600760009054906101000a900473ffffffffffffffffffffffffffffffffffffffff16905081600760006101000a81548173ffffffffffffffffffffffffffffffffffffffff021916908373ffffffffffffffffffffffffffffffffffffffff1602179055508173ffffffffffffffffffffffffffffffffffffffff168173ffffffffffffffffffffffffffffffffffffffff167f8be0079c531659141344cd1fd0a4f28419497f9722a3daafe3b4186f6b6457e060405160405180910390a35050565b600081519050919050565b7f4e487b7100000000000000000000000000000000000000000000000000000000600052604160045260246000fd5b7f4e487b7100000000000000000000000000000000000000000000000000000000600052602260045260246000fd5b6000600282049050600182168061026e57607f821691505b60208210810361028157610280610227565b5b50919050565b60008190508160005260206000209050919050565b60006020601f8301049050919050565b600082821b905092915050565b6000600883026102e97fffffffffffffffffffffffffffffffffffffffffffffffffffffffffffffffff826102ac565b6102f386836102ac565b95508019841693508086168417925050509392505050565b6000819050919050565b6000819050919050565b600061033a6103356103308461030b565b610315565b61030b565b9050919050565b6000819050919050565b6103548361031f565b61036861036082610341565b8484546102b9565b825550505050565b600090565b61037d610370565b61038881848461034b565b505050565b5b818110156103ac576103a1600082610375565b60018101905061038e565b5050565b601f8211156103f1576103c281610287565b6103cb8461029c565b810160208510156103da578190505b6103ee6103e68561029c565b83018261038d565b50505b505050565b600082821c905092915050565b6000610414600019846008026103f6565b1980831691505092915050565b600061042d8383610403565b9150826002028217905092915050565b610446826101ed565b67ffffffffffffffff81111561045f5761045e6101f8565b5b6104698254610256565b6104748282856103b0565b600060209050601f8311600181146104a75760008415610495578287015190505b61049f8582610421565b865550610507565b601f1984166104b586610287565b60005b828110156104dd578489015182556001820191506020850194506020810190506104b8565b868310156104fa57848901516104f6601f891682610403565b8355505b6001600288020188555050505b505050505050565b600073ffffffffffffffffffffffffffffffffffffffff82169050919050565b600061053a8261050f565b9050919050565b61054a8161052f565b82525050565b60006020820190506105656000830184610541565b92915050565b61327d8061057a6000396000f3fe6080604052600436106101405760003560e01c8063715018a6116100b6578063a8b5e6ea1161006f578063a8b5e6ea1461045e578063b88d4fde1461049b578063c87b56dd146104c4578063d0def52114610501578063e985e9c51461053e578063f2fde38b1461057b57610140565b8063715018a6146103615780637c5bb03d146103785780638da5cb5b146103b657806394383f14146103e157806395d89b411461040a578063a22cb4651461043557610140565b806342842e0e1161010857806342842e0e1461023c5780634d197a9b1461026557806351ed82881461028e578063607eb4e4146102aa5780636352211e146102e757806370a082311461032457610140565b806301ffc9a71461014557806306fdde0314610182578063081812fc146101ad578063095ea7b3146101ea57806323b872dd14610213575b600080fd5b34801561015157600080fd5b5061016c60048036038101906101679190612459565b6105a4565b60405161017991906124a1565b60405180910390f35b34801561018e57600080fd5b50610197610605565b6040516101a4919061254c565b60405180910390f35b3480156101b957600080fd5b506101d460048036038101906101cf91906125a4565b610697565b6040516101e19190612612565b60405180910390f35b3480156101f657600080fd5b50610211600480360381019061020c9190612659565b6106b3565b005b34801561021f57600080fd5b5061023a60048036038101906102359190612699565b6106c9565b005b34801561024857600080fd5b50610263600480360381019061025e9190612699565b6107cb565b005b34801561027157600080fd5b5061028c600480360381019061028791906126ec565b6107eb565b005b6102a860048036038101906102a391906125a4565b61084e565b005b3480156102b657600080fd5b506102d160048036038101906102cc91906126ec565b610b03565b6040516102de9190612728565b60405180910390f35b3480156102f357600080fd5b5061030e600480360381019061030991906125a4565b610b1b565b60405161031b9190612612565b60405180910390f35b34801561033057600080fd5b5061034b600480360381019061034691906126ec565b610b2d565b6040516103589190612728565b60405180910390f35b34801561036d57600080fd5b50610376610be7565b005b34801561038457600080fd5b5061039f600480360381019061039a91906125a4565b610bfb565b6040516103ad929190612743565b60405180910390f35b3480156103c257600080fd5b506103cb610c3f565b6040516103d89190612612565b60405180910390f35b3480156103ed57600080fd5b506104086004803603810190610403919061276c565b610c69565b005b34801561041657600080fd5b5061041f610e39565b60405161042c919061254c565b60405180910390f35b34801561044157600080fd5b5061045c600480360381019061045791906127d8565b610ecb565b005b34801561046a57600080fd5b50610485600480360381019061048091906126ec565b610ee1565b60405161049291906124a1565b60405180910390f35b3480156104a757600080fd5b506104c260048036038101906104bd919061294d565b610f01565b005b3480156104d057600080fd5b506104eb60048036038101906104e691906125a4565b610f1e565b6040516104f8919061254c565b60405180910390f35b34801561050d57600080fd5b5061052860048036038101906105239190612a71565b611031565b6040516105359190612728565b60405180910390f35b34801561054a57600080fd5b5061056560048036038101906105609190612acd565b6110f7565b60405161057291906124a1565b60405180910390f35b34801561058757600080fd5b506105a2600480360381019061059d91906126ec565b61118b565b005b6000634906490660e01b7bffffffffffffffffffffffffffffffffffffffffffffffffffffffff1916827bffffffffffffffffffffffffffffffffffffffffffffffffffffffff191614806105fe57506105fd82611211565b5b9050919050565b60606000805461061490612b3c565b80601f016020809104026020016040519081016040528092919081815260200182805461064090612b3c565b801561068d5780601f106106625761010080835404028352916020019161068d565b820191906000526020600020905b81548152906001019060200180831161067057829003601f168201915b5050505050905090565b60006106a2826112f3565b506106ac8261137b565b9050919050565b6106c582826106c06113b8565b6113c0565b5050565b600073ffffffffffffffffffffffffffffffffffffffff168273ffffffffffffffffffffffffffffffffffffffff160361073b5760006040517f64a0ae920000000000000000000000000000000000000000000000000000000081526004016107329190612612565b60405180910390fd5b600061074f838361074a6113b8565b6113d2565b90508373ffffffffffffffffffffffffffffffffffffffff168173ffffffffffffffffffffffffffffffffffffffff16146107c5578382826040517f64283d7b0000000000000000000000000000000000000000000000000000000081526004016107bc93929190612b6d565b60405180910390fd5b50505050565b6107e683838360405180602001604052806000815250610f01565b505050565b6107f36115ec565b6001600a60008373ffffffffffffffffffffffffffffffffffffffff1673ffffffffffffffffffffffffffffffffffffffff16815260200190815260200160002060006101000a81548160ff02191690831515021790555050565b6000600960008381526020019081526020016000206040518060400160405290816000820160009054906101000a900473ffffffffffffffffffffffffffffffffffffffff1673ffffffffffffffffffffffffffffffffffffffff1673ffffffffffffffffffffffffffffffffffffffff16815260200160018201548152505090508060200151341015610917576040517f08c379a000000000000000000000000000000000000000000000000000000000815260040161090e90612bf0565b60405180910390fd5b3073ffffffffffffffffffffffffffffffffffffffff1661093783610697565b73ffffffffffffffffffffffffffffffffffffffff161461098d576040517f08c379a000000000000000000000000000000000000000000000000000000000815260040161098490612c5c565b60405180910390fd5b60008160000151905060008260200151905060096000858152602001908152602001600020600080820160006101000a81549073ffffffffffffffffffffffffffffffffffffffff0219169055600182016000905550506109ef823386611673565b80600b60008473ffffffffffffffffffffffffffffffffffffffff1673ffffffffffffffffffffffffffffffffffffffff1681526020019081526020016000206000828254610a3e9190612cab565b925050819055503373ffffffffffffffffffffffffffffffffffffffff166108fc8234610a6b9190612cdf565b9081150290604051600060405180830381858888f19350505050158015610a96573d6000803e3d6000fd5b503373ffffffffffffffffffffffffffffffffffffffff168273ffffffffffffffffffffffffffffffffffffffff16857f652b056fbe8adee87f5edc9c45a74016875f070e35134712c9f3b8cdf291e40784604051610af59190612728565b60405180910390a450505050565b600b6020528060005260406000206000915090505481565b6000610b26826112f3565b9050919050565b60008073ffffffffffffffffffffffffffffffffffffffff168273ffffffffffffffffffffffffffffffffffffffff1603610ba05760006040517f89c62b64000000000000000000000000000000000000000000000000000000008152600401610b979190612612565b60405180910390fd5b600360008373ffffffffffffffffffffffffffffffffffffffff1673ffffffffffffffffffffffffffffffffffffffff168152602001908152602001600020549050919050565b610bef6115ec565b610bf960006117e0565b565b60096020528060005260406000206000915090508060000160009054906101000a900473ffffffffffffffffffffffffffffffffffffffff16908060010154905082565b6000600760009054906101000a900473ffffffffffffffffffffffffffffffffffffffff16905090565b3373ffffffffffffffffffffffffffffffffffffffff16610c8983610b1b565b73ffffffffffffffffffffffffffffffffffffffff1614610cdf576040517f08c379a0000000000000000000000000000000000000000000000000000000008152600401610cd690612d5f565b60405180910390fd5b3073ffffffffffffffffffffffffffffffffffffffff16610cff83610697565b73ffffffffffffffffffffffffffffffffffffffff1614610d55576040517f08c379a0000000000000000000000000000000000000000000000000000000008152600401610d4c90612dcb565b60405180910390fd5b60405180604001604052803373ffffffffffffffffffffffffffffffffffffffff168152602001828152506009600084815260200190815260200160002060008201518160000160006101000a81548173ffffffffffffffffffffffffffffffffffffffff021916908373ffffffffffffffffffffffffffffffffffffffff160217905550602082015181600101559050503373ffffffffffffffffffffffffffffffffffffffff16827ee23ccb949c43f7b86d646af4913e5984072361e1418b4951c4b0854d06e96d83604051610e2d9190612728565b60405180910390a35050565b606060018054610e4890612b3c565b80601f0160208091040260200160405190810160405280929190818152602001828054610e7490612b3c565b8015610ec15780601f10610e9657610100808354040283529160200191610ec1565b820191906000526020600020905b815481529060010190602001808311610ea457829003601f168201915b5050505050905090565b610edd610ed66113b8565b83836118a6565b5050565b600a6020528060005260406000206000915054906101000a900460ff1681565b610f0c8484846106c9565b610f1884848484611a15565b50505050565b6060610f29826112f3565b506000600660008481526020019081526020016000208054610f4a90612b3c565b80601f0160208091040260200160405190810160405280929190818152602001828054610f7690612b3c565b8015610fc35780601f10610f9857610100808354040283529160200191610fc3565b820191906000526020600020905b815481529060010190602001808311610fa657829003601f168201915b505050505090506000610fd4611bcc565b90506000815103610fe957819250505061102c565b60008251111561101e578082604051602001611006929190612e27565b6040516020818303038152906040529250505061102c565b61102784611be3565b925050505b919050565b6000600a60003373ffffffffffffffffffffffffffffffffffffffff1673ffffffffffffffffffffffffffffffffffffffff16815260200190815260200160002060009054906101000a900460ff166110bf576040517f08c379a00000000000000000000000000000000000000000000000000000000081526004016110b690612e97565b60405180910390fd5b60016008546110ce9190612cab565b6008819055506110e083600854611c4c565b6110ec60085483611c6a565b600854905092915050565b6000600560008473ffffffffffffffffffffffffffffffffffffffff1673ffffffffffffffffffffffffffffffffffffffff16815260200190815260200160002060008373ffffffffffffffffffffffffffffffffffffffff1673ffffffffffffffffffffffffffffffffffffffff16815260200190815260200160002060009054906101000a900460ff16905092915050565b6111936115ec565b600073ffffffffffffffffffffffffffffffffffffffff168173ffffffffffffffffffffffffffffffffffffffff16036112055760006040517f1e4fbdf70000000000000000000000000000000000000000000000000000000081526004016111fc9190612612565b60405180910390fd5b61120e816117e0565b50565b60007f80ac58cd000000000000000000000000000000000000000000000000000000007bffffffffffffffffffffffffffffffffffffffffffffffffffffffff1916827bffffffffffffffffffffffffffffffffffffffffffffffffffffffff191614806112dc57507f5b5e139f000000000000000000000000000000000000000000000000000000007bffffffffffffffffffffffffffffffffffffffffffffffffffffffff1916827bffffffffffffffffffffffffffffffffffffffffffffffffffffffff1916145b806112ec57506112eb82611cc6565b5b9050919050565b6000806112ff83611d30565b9050600073ffffffffffffffffffffffffffffffffffffffff168173ffffffffffffffffffffffffffffffffffffffff160361137257826040517f7e2732890000000000000000000000000000000000000000000000000000000081526004016113699190612728565b60405180910390fd5b80915050919050565b60006004600083815260200190815260200160002060009054906101000a900473ffffffffffffffffffffffffffffffffffffffff169050919050565b600033905090565b6113cd8383836001611d6d565b505050565b6000806113de84611d30565b9050600073ffffffffffffffffffffffffffffffffffffffff168373ffffffffffffffffffffffffffffffffffffffff16146114205761141f818486611f32565b5b600073ffffffffffffffffffffffffffffffffffffffff168173ffffffffffffffffffffffffffffffffffffffff16146114b157611462600085600080611d6d565b6001600360008373ffffffffffffffffffffffffffffffffffffffff1673ffffffffffffffffffffffffffffffffffffffff168152602001908152602001600020600082825403925050819055505b600073ffffffffffffffffffffffffffffffffffffffff168573ffffffffffffffffffffffffffffffffffffffff1614611534576001600360008773ffffffffffffffffffffffffffffffffffffffff1673ffffffffffffffffffffffffffffffffffffffff168152602001908152602001600020600082825401925050819055505b846002600086815260200190815260200160002060006101000a81548173ffffffffffffffffffffffffffffffffffffffff021916908373ffffffffffffffffffffffffffffffffffffffff160217905550838573ffffffffffffffffffffffffffffffffffffffff168273ffffffffffffffffffffffffffffffffffffffff167fddf252ad1be2c89b69c2b068fc378daa952ba7f163c4a11628f55a4df523b3ef60405160405180910390a4809150509392505050565b6115f46113b8565b73ffffffffffffffffffffffffffffffffffffffff16611612610c3f565b73ffffffffffffffffffffffffffffffffffffffff1614611671576116356113b8565b6040517f118cdaa70000000000000000000000000000000000000000000000000000000081526004016116689190612612565b60405180910390fd5b565b600073ffffffffffffffffffffffffffffffffffffffff168273ffffffffffffffffffffffffffffffffffffffff16036116e55760006040517f64a0ae920000000000000000000000000000000000000000000000000000000081526004016116dc9190612612565b60405180910390fd5b60006116f3838360006113d2565b9050600073ffffffffffffffffffffffffffffffffffffffff168173ffffffffffffffffffffffffffffffffffffffff160361176657816040517f7e27328900000000000000000000000000000000000000000000000000000000815260040161175d9190612728565b60405180910390fd5b8373ffffffffffffffffffffffffffffffffffffffff168173ffffffffffffffffffffffffffffffffffffffff16146117da578382826040517f64283d7b0000000000000000000000000000000000000000000000000000000081526004016117d193929190612b6d565b60405180910390fd5b50505050565b6000600760009054906101000a900473ffffffffffffffffffffffffffffffffffffffff16905081600760006101000a81548173ffffffffffffffffffffffffffffffffffffffff021916908373ffffffffffffffffffffffffffffffffffffffff1602179055508173ffffffffffffffffffffffffffffffffffffffff168173ffffffffffffffffffffffffffffffffffffffff167f8be0079c531659141344cd1fd0a4f28419497f9722a3daafe3b4186f6b6457e060405160405180910390a35050565b600073ffffffffffffffffffffffffffffffffffffffff168273ffffffffffffffffffffffffffffffffffffffff160361191757816040517f5b08ba1800000000000000000000000000000000000000000000000000000000815260040161190e9190612612565b60405180910390fd5b80600560008573ffffffffffffffffffffffffffffffffffffffff1673ffffffffffffffffffffffffffffffffffffffff16815260200190815260200160002060008473ffffffffffffffffffffffffffffffffffffffff1673ffffffffffffffffffffffffffffffffffffffff16815260200190815260200160002060006101000a81548160ff0219169083151502179055508173ffffffffffffffffffffffffffffffffffffffff168373ffffffffffffffffffffffffffffffffffffffff167f17307eab39ab6107e8899845ad3d59bd9653f200f220920489ca2b5937696c3183604051611a0891906124a1565b60405180910390a3505050565b60008373ffffffffffffffffffffffffffffffffffffffff163b1115611bc6578273ffffffffffffffffffffffffffffffffffffffff1663150b7a02611a596113b8565b8685856040518563ffffffff1660e01b8152600401611a7b9493929190612f0c565b6020604051808303816000875af1925050508015611ab757506040513d601f19601f82011682018060405250810190611ab49190612f6d565b60015b611b3b573d8060008114611ae7576040519150601f19603f3d011682016040523d82523d6000602084013e611aec565b606091505b506000815103611b3357836040517f64a0ae92000000000000000000000000000000000000000000000000000000008152600401611b2a9190612612565b60405180910390fd5b805181602001fd5b63150b7a0260e01b7bffffffffffffffffffffffffffffffffffffffffffffffffffffffff1916817bffffffffffffffffffffffffffffffffffffffffffffffffffffffff191614611bc457836040517f64a0ae92000000000000000000000000000000000000000000000000000000008152600401611bbb9190612612565b60405180910390fd5b505b50505050565b606060405180602001604052806000815250905090565b6060611bee826112f3565b506000611bf9611bcc565b90506000815111611c195760405180602001604052806000815250611c44565b80611c2384611ff6565b604051602001611c34929190612e27565b6040516020818303038152906040525b915050919050565b611c668282604051806020016040528060008152506120c4565b5050565b80600660008481526020019081526020016000209081611c8a9190613146565b507ff8e1a15aba9398e019f0b49df1a4fde98ee17ae345cb5f6b5e2c27f5033e8ce782604051611cba9190612728565b60405180910390a15050565b60007f01ffc9a7000000000000000000000000000000000000000000000000000000007bffffffffffffffffffffffffffffffffffffffffffffffffffffffff1916827bffffffffffffffffffffffffffffffffffffffffffffffffffffffff1916149050919050565b60006002600083815260200190815260200160002060009054906101000a900473ffffffffffffffffffffffffffffffffffffffff169050919050565b8080611da65750600073ffffffffffffffffffffffffffffffffffffffff168273ffffffffffffffffffffffffffffffffffffffff1614155b15611eda576000611db6846112f3565b9050600073ffffffffffffffffffffffffffffffffffffffff168373ffffffffffffffffffffffffffffffffffffffff1614158015611e2157508273ffffffffffffffffffffffffffffffffffffffff168173ffffffffffffffffffffffffffffffffffffffff1614155b8015611e345750611e3281846110f7565b155b15611e7657826040517fa9fbf51f000000000000000000000000000000000000000000000000000000008152600401611e6d9190612612565b60405180910390fd5b8115611ed857838573ffffffffffffffffffffffffffffffffffffffff168273ffffffffffffffffffffffffffffffffffffffff167f8c5be1e5ebec7d5bd14f71427d1e84f3dd0314c0f7b2291e5b200ac8c7c3b92560405160405180910390a45b505b836004600085815260200190815260200160002060006101000a81548173ffffffffffffffffffffffffffffffffffffffff021916908373ffffffffffffffffffffffffffffffffffffffff16021790555050505050565b611f3d8383836120e0565b611ff157600073ffffffffffffffffffffffffffffffffffffffff168373ffffffffffffffffffffffffffffffffffffffff1603611fb257806040517f7e273289000000000000000000000000000000000000000000000000000000008152600401611fa99190612728565b60405180910390fd5b81816040517f177e802f000000000000000000000000000000000000000000000000000000008152600401611fe8929190612743565b60405180910390fd5b505050565b606060006001612005846121a1565b01905060008167ffffffffffffffff81111561202457612023612822565b5b6040519080825280601f01601f1916602001820160405280156120565781602001600182028036833780820191505090505b509050600082602001820190505b6001156120b9578080600190039150507f3031323334353637383961626364656600000000000000000000000000000000600a86061a8153600a85816120ad576120ac613218565b5b04945060008503612064575b819350505050919050565b6120ce83836122f4565b6120db6000848484611a15565b505050565b60008073ffffffffffffffffffffffffffffffffffffffff168373ffffffffffffffffffffffffffffffffffffffff161415801561219857508273ffffffffffffffffffffffffffffffffffffffff168473ffffffffffffffffffffffffffffffffffffffff161480612159575061215884846110f7565b5b8061219757508273ffffffffffffffffffffffffffffffffffffffff1661217f8361137b565b73ffffffffffffffffffffffffffffffffffffffff16145b5b90509392505050565b600080600090507a184f03e93ff9f4daa797ed6e38ed64bf6a1f01000000000000000083106121ff577a184f03e93ff9f4daa797ed6e38ed64bf6a1f01000000000000000083816121f5576121f4613218565b5b0492506040810190505b6d04ee2d6d415b85acef8100000000831061223c576d04ee2d6d415b85acef8100000000838161223257612231613218565b5b0492506020810190505b662386f26fc10000831061226b57662386f26fc10000838161226157612260613218565b5b0492506010810190505b6305f5e1008310612294576305f5e100838161228a57612289613218565b5b0492506008810190505b61271083106122b95761271083816122af576122ae613218565b5b0492506004810190505b606483106122dc57606483816122d2576122d1613218565b5b0492506002810190505b600a83106122eb576001810190505b80915050919050565b600073ffffffffffffffffffffffffffffffffffffffff168273ffffffffffffffffffffffffffffffffffffffff16036123665760006040517f64a0ae9200000000000000000000000000000000000000000000000000000000815260040161235d9190612612565b60405180910390fd5b6000612374838360006113d2565b9050600073ffffffffffffffffffffffffffffffffffffffff168173ffffffffffffffffffffffffffffffffffffffff16146123e85760006040517f73c6ac6e0000000000000000000000000000000000000000000000000000000081526004016123df9190612612565b60405180910390fd5b505050565b6000604051905090565b600080fd5b600080fd5b60007fffffffff0000000000000000000000000000000000000000000000000000000082169050919050565b61243681612401565b811461244157600080fd5b50565b6000813590506124538161242d565b92915050565b60006020828403121561246f5761246e6123f7565b5b600061247d84828501612444565b91505092915050565b60008115159050919050565b61249b81612486565b82525050565b60006020820190506124b66000830184612492565b92915050565b600081519050919050565b600082825260208201905092915050565b60005b838110156124f65780820151818401526020810190506124db565b60008484015250505050565b6000601f19601f8301169050919050565b600061251e826124bc565b61252881856124c7565b93506125388185602086016124d8565b61254181612502565b840191505092915050565b600060208201905081810360008301526125668184612513565b905092915050565b6000819050919050565b6125818161256e565b811461258c57600080fd5b50565b60008135905061259e81612578565b92915050565b6000602082840312156125ba576125b96123f7565b5b60006125c88482850161258f565b91505092915050565b600073ffffffffffffffffffffffffffffffffffffffff82169050919050565b60006125fc826125d1565b9050919050565b61260c816125f1565b82525050565b60006020820190506126276000830184612603565b92915050565b612636816125f1565b811461264157600080fd5b50565b6000813590506126538161262d565b92915050565b600080604083850312156126705761266f6123f7565b5b600061267e85828601612644565b925050602061268f8582860161258f565b9150509250929050565b6000806000606084860312156126b2576126b16123f7565b5b60006126c086828701612644565b93505060206126d186828701612644565b92505060406126e28682870161258f565b9150509250925092565b600060208284031215612702576127016123f7565b5b600061271084828501612644565b91505092915050565b6127228161256e565b82525050565b600060208201905061273d6000830184612719565b92915050565b60006040820190506127586000830185612603565b6127656020830184612719565b9392505050565b60008060408385031215612783576127826123f7565b5b60006127918582860161258f565b92505060206127a28582860161258f565b9150509250929050565b6127b581612486565b81146127c057600080fd5b50565b6000813590506127d2816127ac565b92915050565b600080604083850312156127ef576127ee6123f7565b5b60006127fd85828601612644565b925050602061280e858286016127c3565b9150509250929050565b600080fd5b600080fd5b7f4e487b7100000000000000000000000000000000000000000000000000000000600052604160045260246000fd5b61285a82612502565b810181811067ffffffffffffffff8211171561287957612878612822565b5b80604052505050565b600061288c6123ed565b90506128988282612851565b919050565b600067ffffffffffffffff8211156128b8576128b7612822565b5b6128c182612502565b9050602081019050919050565b82818337600083830152505050565b60006128f06128eb8461289d565b612882565b90508281526020810184848401111561290c5761290b61281d565b5b6129178482856128ce565b509392505050565b600082601f83011261293457612933612818565b5b81356129448482602086016128dd565b91505092915050565b60008060008060808587031215612967576129666123f7565b5b600061297587828801612644565b945050602061298687828801612644565b93505060406129978782880161258f565b925050606085013567ffffffffffffffff8111156129b8576129b76123fc565b5b6129c48782880161291f565b91505092959194509250565b600067ffffffffffffffff8211156129eb576129ea612822565b5b6129f482612502565b9050602081019050919050565b6000612a14612a0f846129d0565b612882565b905082815260208101848484011115612a3057612a2f61281d565b5b612a3b8482856128ce565b509392505050565b600082601f830112612a5857612a57612818565b5b8135612a68848260208601612a01565b91505092915050565b60008060408385031215612a8857612a876123f7565b5b6000612a9685828601612644565b925050602083013567ffffffffffffffff811115612ab757612ab66123fc565b5b612ac385828601612a43565b9150509250929050565b60008060408385031215612ae457612ae36123f7565b5b6000612af285828601612644565b9250506020612b0385828601612644565b9150509250929050565b7f4e487b7100000000000000000000000000000000000000000000000000000000600052602260045260246000fd5b60006002820490506001821680612b5457607f821691505b602082108103612b6757612b66612b0d565b5b50919050565b6000606082019050612b826000830186612603565b612b8f6020830185612719565b612b9c6040830184612603565b949350505050565b7f496e636f727265637420616d6f756e7400000000000000000000000000000000600082015250565b6000612bda6010836124c7565b9150612be582612ba4565b602082019050919050565b60006020820190508181036000830152612c0981612bcd565b9050919050565b7f4d61726b6574206e6f7420617070726f76656400000000000000000000000000600082015250565b6000612c466013836124c7565b9150612c5182612c10565b602082019050919050565b60006020820190508181036000830152612c7581612c39565b9050919050565b7f4e487b7100000000000000000000000000000000000000000000000000000000600052601160045260246000fd5b6000612cb68261256e565b9150612cc18361256e565b9250828201905080821115612cd957612cd8612c7c565b5b92915050565b6000612cea8261256e565b9150612cf58361256e565b9250828203905081811115612d0d57612d0c612c7c565b5b92915050565b7f4e6f74206f776e65720000000000000000000000000000000000000000000000600082015250565b6000612d496009836124c7565b9150612d5482612d13565b602082019050919050565b60006020820190508181036000830152612d7881612d3c565b9050919050565b7f4e6f7420617070726f7665640000000000000000000000000000000000000000600082015250565b6000612db5600c836124c7565b9150612dc082612d7f565b602082019050919050565b60006020820190508181036000830152612de481612da8565b9050919050565b600081905092915050565b6000612e01826124bc565b612e0b8185612deb565b9350612e1b8185602086016124d8565b80840191505092915050565b6000612e338285612df6565b9150612e3f8284612df6565b91508190509392505050565b7f556e617574686f72697a6564206d696e74657200000000000000000000000000600082015250565b6000612e816013836124c7565b9150612e8c82612e4b565b602082019050919050565b60006020820190508181036000830152612eb081612e74565b9050919050565b600081519050919050565b600082825260208201905092915050565b6000612ede82612eb7565b612ee88185612ec2565b9350612ef88185602086016124d8565b612f0181612502565b840191505092915050565b6000608082019050612f216000830187612603565b612f2e6020830186612603565b612f3b6040830185612719565b8181036060830152612f4d8184612ed3565b905095945050505050565b600081519050612f678161242d565b92915050565b600060208284031215612f8357612f826123f7565b5b6000612f9184828501612f58565b91505092915050565b60008190508160005260206000209050919050565b60006020601f8301049050919050565b600082821b905092915050565b600060088302612ffc7fffffffffffffffffffffffffffffffffffffffffffffffffffffffffffffffff82612fbf565b6130068683612fbf565b95508019841693508086168417925050509392505050565b6000819050919050565b600061304361303e6130398461256e565b61301e565b61256e565b9050919050565b6000819050919050565b61305d83613028565b6130716130698261304a565b848454612fcc565b825550505050565b600090565b613086613079565b613091818484613054565b505050565b5b818110156130b5576130aa60008261307e565b600181019050613097565b5050565b601f8211156130fa576130cb81612f9a565b6130d484612faf565b810160208510156130e3578190505b6130f76130ef85612faf565b830182613096565b50505b505050565b600082821c905092915050565b600061311d600019846008026130ff565b1980831691505092915050565b6000613136838361310c565b9150826002028217905092915050565b61314f826124bc565b67ffffffffffffffff81111561316857613167612822565b5b6131728254612b3c565b61317d8282856130b9565b600060209050601f8311600181146131b0576000841561319e578287015190505b6131a8858261312a565b865550613210565b601f1984166131be86612f9a565b60005b828110156131e6578489015182556001820191506020850194506020810190506131c1565b8683101561320357848901516131ff601f89168261310c565b8355505b6001600288020188555050505b505050505050565b7f4e487b7100000000000000000000000000000000000000000000000000000000600052601260045260246000fdfea2646970667358221220d493fdb8c94b277e4c5223e74181b434e6015fd7bd653771454da27321c6fc3664736f6c634300081b0033",
  "linkReferences": {},
  "deployedLinkReferences": {}
}